{"abi":[{"type":"constructor","inputs":[{"name":"_endpoint","type":"address","internalType":"address"},{"name":"_owner","type":"address","internalType":"address"}],"stateMutability":"nonpayable"},{"type":"function","name":"READ_CHANNEL","inputs":[],"outputs":[{"name":"","type":"uint32","internalType":"uint32"}],"stateMutability":"view"},{"type":"function","name":"READ_MSG_TYPE","inputs":[],"outputs":[{"name":"","type":"uint16","internalType":"uint16"}],"stateMutability":"view"},{"type":"function","name":"addSupportedChain","inputs":[{"name":"_eid","type":"uint32","internalType":"uint32"},{"name":"_confirmations","type":"uint16","internalType":"uint16"},{"name":"_name","type":"string","internalType":"string"}],"outputs":[],"stateMutability":"nonpayable"},{"type":"function","name":"addressBalances","inputs":[{"name":"","type":"address","internalType":"address"},{"name":"","type":"uint32","internalType":"uint32"}],"outputs":[{"name":"","type":"uint256","internalType":"uint256"}],"stateMutability":"view"},{"type":"function","name":"addressChains","inputs":[{"name":"","type":"address","internalType":"address"},{"name":"","type":"uint256","internalType":"uint256"}],"outputs":[{"name":"","type":"uint32","internalType":"uint32"}],"stateMutability":"view"},{"type":"function","name":"addressProcessed","inputs":[{"name":"","type":"address","internalType":"address"}],"outputs":[{"name":"","type":"bool","internalType":"bool"}],"stateMutability":"view"},{"type":"function","name":"allowInitializePath","inputs":[{"name":"origin","type":"tuple","internalType":"struct Origin","components":[{"name":"srcEid","type":"uint32","internalType":"uint32"},{"name":"sender","type":"bytes32","internalType":"bytes32"},{"name":"nonce","type":"uint64","internalType":"uint64"}]}],"outputs":[{"name":"","type":"bool","internalType":"bool"}],"stateMutability":"view"},{"type":"function","name":"endpoint","inputs":[],"outputs":[{"name":"","type":"address","internalType":"contract ILayerZeroEndpointV2"}],"stateMutability":"view"},{"type":"function","name":"fetchBalances","inputs":[{"name":"_account","type":"address","internalType":"address"}],"outputs":[{"name":"guid","type":"bytes32","internalType":"bytes32"}],"stateMutability":"payable"},{"type":"function","name":"getBalancesJson","inputs":[{"name":"_account","type":"address","internalType":"address"}],"outputs":[{"name":"json","type":"string","internalType":"string"}],"stateMutability":"view"},{"type":"function","name":"getReadCommand","inputs":[{"name":"_account","type":"address","internalType":"address"}],"outputs":[{"name":"cmd","type":"bytes","internalType":"bytes"}],"stateMutability":"view"},{"type":"function","name":"initialize","inputs":[],"outputs":[],"stateMutability":"nonpayable"},{"type":"function","name":"isComposeMsgSender","inputs":[{"name":"","type":"tuple","internalType":"struct Origin","components":[{"name":"srcEid","type":"uint32","internalType":"uint32"},{"name":"sender","type":"bytes32","internalType":"bytes32"},{"name":"nonce","type":"uint64","internalType":"uint64"}]},{"name":"","type":"bytes","internalType":"bytes"},{"name":"_sender","type":"address","internalType":"address"}],"outputs":[{"name":"","type":"bool","internalType":"bool"}],"stateMutability":"view"},{"type":"function","name":"isProcessed","inputs":[{"name":"_account","type":"address","internalType":"address"}],"outputs":[{"name":"","type":"bool","internalType":"bool"}],"stateMutability":"view"},{"type":"function","name":"lzMap","inputs":[{"name":"_request","type":"bytes","internalType":"bytes"},{"name":"_response","type":"bytes","internalType":"bytes"}],"outputs":[{"name":"","type":"bytes","internalType":"bytes"}],"stateMutability":"pure"},{"type":"function","name":"lzReceive","inputs":[{"name":"_origin","type":"tuple","internalType":"struct Origin","components":[{"name":"srcEid","type":"uint32","internalType":"uint32"},{"name":"sender","type":"bytes32","internalType":"bytes32"},{"name":"nonce","type":"uint64","internalType":"uint64"}]},{"name":"_guid","type":"bytes32","internalType":"bytes32"},{"name":"_message","type":"bytes","internalType":"bytes"},{"name":"_executor","type":"address","internalType":"address"},{"name":"_extraData","type":"bytes","internalType":"bytes"}],"outputs":[],"stateMutability":"payable"},{"type":"function","name":"lzReduce","inputs":[{"name":"_cmd","type":"bytes","internalType":"bytes"},{"name":"_responses","type":"bytes[]","internalType":"bytes[]"}],"outputs":[{"name":"","type":"bytes","internalType":"bytes"}],"stateMutability":"pure"},{"type":"function","name":"nextNonce","inputs":[{"name":"","type":"uint32","internalType":"uint32"},{"name":"","type":"bytes32","internalType":"bytes32"}],"outputs":[{"name":"nonce","type":"uint64","internalType":"uint64"}],"stateMutability":"view"},{"type":"function","name":"oAppVersion","inputs":[],"outputs":[{"name":"senderVersion","type":"uint64","internalType":"uint64"},{"name":"receiverVersion","type":"uint64","internalType":"uint64"}],"stateMutability":"pure"},{"type":"function","name":"owner","inputs":[],"outputs":[{"name":"","type":"address","internalType":"address"}],"stateMutability":"view"},{"type":"function","name":"peers","inputs":[{"name":"eid","type":"uint32","internalType":"uint32"}],"outputs":[{"name":"peer","type":"bytes32","internalType":"bytes32"}],"stateMutability":"view"},{"type":"function","name":"removeSupportedChain","inputs":[{"name":"_index","type":"uint256","internalType":"uint256"}],"outputs":[],"stateMutability":"nonpayable"},{"type":"function","name":"renounceOwnership","inputs":[],"outputs":[],"stateMutability":"nonpayable"},{"type":"function","name":"requestToAddress","inputs":[{"name":"","type":"bytes32","internalType":"bytes32"}],"outputs":[{"name":"","type":"address","internalType":"address"}],"stateMutability":"view"},{"type":"function","name":"setDelegate","inputs":[{"name":"_delegate","type":"address","internalType":"address"}],"outputs":[],"stateMutability":"nonpayable"},{"type":"function","name":"setPeer","inputs":[{"name":"_eid","type":"uint32","internalType":"uint32"},{"name":"_peer","type":"bytes32","internalType":"bytes32"}],"outputs":[],"stateMutability":"nonpayable"},{"type":"function","name":"setReadChannel","inputs":[{"name":"_channelId","type":"uint32","internalType":"uint32"},{"name":"_active","type":"bool","internalType":"bool"}],"outputs":[],"stateMutability":"nonpayable"},{"type":"function","name":"supportedChains","inputs":[{"name":"","type":"uint256","internalType":"uint256"}],"outputs":[{"name":"eid","type":"uint32","internalType":"uint32"},{"name":"confirmations","type":"uint16","internalType":"uint16"},{"name":"name","type":"string","internalType":"string"}],"stateMutability":"view"},{"type":"function","name":"transferOwnership","inputs":[{"name":"newOwner","type":"address","internalType":"address"}],"outputs":[],"stateMutability":"nonpayable"},{"type":"event","name":"BalanceRequestSent","inputs":[{"name":"guid","type":"bytes32","indexed":false,"internalType":"bytes32"},{"name":"account","type":"address","indexed":false,"internalType":"address"}],"anonymous":false},{"type":"event","name":"BalancesUpdated","inputs":[{"name":"account","type":"address","indexed":true,"internalType":"address"},{"name":"chains","type":"uint32[]","indexed":false,"internalType":"uint32[]"},{"name":"balances","type":"uint256[]","indexed":false,"internalType":"uint256[]"}],"anonymous":false},{"type":"event","name":"OwnershipTransferred","inputs":[{"name":"previousOwner","type":"address","indexed":true,"internalType":"address"},{"name":"newOwner","type":"address","indexed":true,"internalType":"address"}],"anonymous":false},{"type":"event","name":"PeerSet","inputs":[{"name":"eid","type":"uint32","indexed":false,"internalType":"uint32"},{"name":"peer","type":"bytes32","indexed":false,"internalType":"bytes32"}],"anonymous":false},{"type":"error","name":"InvalidDelegate","inputs":[]},{"type":"error","name":"InvalidEndpointCall","inputs":[]},{"type":"error","name":"InvalidOptionType","inputs":[{"name":"optionType","type":"uint16","internalType":"uint16"}]},{"type":"error","name":"LzTokenUnavailable","inputs":[]},{"type":"error","name":"NoPeer","inputs":[{"name":"eid","type":"uint32","internalType":"uint32"}]},{"type":"error","name":"NotEnoughNative","inputs":[{"name":"msgValue","type":"uint256","internalType":"uint256"}]},{"type":"error","name":"OnlyEndpoint","inputs":[{"name":"addr","type":"address","internalType":"address"}]},{"type":"error","name":"OnlyPeer","inputs":[{"name":"eid","type":"uint32","internalType":"uint32"},{"name":"sender","type":"bytes32","internalType":"bytes32"}]},{"type":"error","name":"OwnableInvalidOwner","inputs":[{"name":"owner","type":"address","internalType":"address"}]},{"type":"error","name":"OwnableUnauthorizedAccount","inputs":[{"name":"account","type":"address","internalType":"address"}]},{"type":"error","name":"SafeCastOverflowedUintDowncast","inputs":[{"name":"bits","type":"uint8","internalType":"uint8"},{"name":"value","type":"uint256","internalType":"uint256"}]},{"type":"error","name":"SafeERC20FailedOperation","inputs":[{"name":"token","type":"address","internalType":"address"}]}],"bytecode":{"object":"0x60a060405234801561000f575f5ffd5b50604051615f47380380615f4783398181016040528101906100319190610837565b818181818181865f73ffffffffffffffffffffffffffffffffffffffff168173ffffffffffffffffffffffffffffffffffffffff16036100a8575f6040517f1e4fbdf700000000000000000000000000000000000000000000000000000000815260040161009f9190610884565b60405180910390fd5b6100b78161071860201b60201c565b508173ffffffffffffffffffffffffffffffffffffffff1660808173ffffffffffffffffffffffffffffffffffffffff16815250505f73ffffffffffffffffffffffffffffffffffffffff168173ffffffffffffffffffffffffffffffffffffffff1603610151576040517fb586360400000000000000000000000000000000000000000000000000000000815260040160405180910390fd5b60805173ffffffffffffffffffffffffffffffffffffffff1663ca5eb5e1826040518263ffffffff1660e01b815260040161018c9190610884565b5f604051808303815f87803b1580156101a3575f5ffd5b505af11580156101b5573d5f5f3e3d5ffd5b505050505050505050506006604051806060016040528061759563ffffffff168152602001600161ffff1681526020016040518060400160405280601081526020017f457468657265756d204d61696e6e657400000000000000000000000000000000815250815250908060018154018082558091505060019003905f5260205f2090600202015f909190919091505f820151815f015f6101000a81548163ffffffff021916908363ffffffff1602179055506020820151815f0160046101000a81548161ffff021916908361ffff160217905550604082015181600101908161029f9190610ada565b5050506006604051806060016040528061759e63ffffffff168152602001600161ffff1681526020016040518060400160405280601081526020017f417262697472756d204d61696e6e657400000000000000000000000000000000815250815250908060018154018082558091505060019003905f5260205f2090600202015f909190919091505f820151815f015f6101000a81548163ffffffff021916908363ffffffff1602179055506020820151815f0160046101000a81548161ffff021916908361ffff16021790555060408201518160010190816103829190610ada565b5050506006604051806060016040528061759a63ffffffff168152602001600161ffff1681526020016040518060400160405280601181526020017f4176616c616e636865204d61696e6e6574000000000000000000000000000000815250815250908060018154018082558091505060019003905f5260205f2090600202015f909190919091505f820151815f015f6101000a81548163ffffffff021916908363ffffffff1602179055506020820151815f0160046101000a81548161ffff021916908361ffff16021790555060408201518160010190816104659190610ada565b5050506006604051806060016040528061759663ffffffff168152602001600161ffff1681526020016040518060400160405280600f81526020017f424e4220536d61727420436861696e0000000000000000000000000000000000815250815250908060018154018082558091505060019003905f5260205f2090600202015f909190919091505f820151815f015f6101000a81548163ffffffff021916908363ffffffff1602179055506020820151815f0160046101000a81548161ffff021916908361ffff16021790555060408201518160010190816105489190610ada565b5050506006604051806060016040528061759f63ffffffff168152602001600161ffff1681526020016040518060400160405280601081526020017f4f7074696d69736d204d61696e6e657400000000000000000000000000000000815250815250908060018154018082558091505060019003905f5260205f2090600202015f909190919091505f820151815f015f6101000a81548163ffffffff021916908363ffffffff1602179055506020820151815f0160046101000a81548161ffff021916908361ffff160217905550604082015181600101908161062b9190610ada565b5050506006604051806060016040528061759d63ffffffff168152602001600161ffff1681526020016040518060400160405280600f81526020017f506f6c79676f6e204d61696e6e65740000000000000000000000000000000000815250815250908060018154018082558091505060019003905f5260205f2090600202015f909190919091505f820151815f015f6101000a81548163ffffffff021916908363ffffffff1602179055506020820151815f0160046101000a81548161ffff021916908361ffff160217905550604082015181600101908161070e9190610ada565b5050505050610ba9565b5f5f5f9054906101000a900473ffffffffffffffffffffffffffffffffffffffff169050815f5f6101000a81548173ffffffffffffffffffffffffffffffffffffffff021916908373ffffffffffffffffffffffffffffffffffffffff1602179055508173ffffffffffffffffffffffffffffffffffffffff168173ffffffffffffffffffffffffffffffffffffffff167f8be0079c531659141344cd1fd0a4f28419497f9722a3daafe3b4186f6b6457e060405160405180910390a35050565b5f5ffd5b5f73ffffffffffffffffffffffffffffffffffffffff82169050919050565b5f610806826107dd565b9050919050565b610816816107fc565b8114610820575f5ffd5b50565b5f815190506108318161080d565b92915050565b5f5f6040838503121561084d5761084c6107d9565b5b5f61085a85828601610823565b925050602061086b85828601610823565b9150509250929050565b61087e816107fc565b82525050565b5f6020820190506108975f830184610875565b92915050565b5f81519050919050565b7f4e487b71000000000000000000000000000000000000000000000000000000005f52604160045260245ffd5b7f4e487b71000000000000000000000000000000000000000000000000000000005f52602260045260245ffd5b5f600282049050600182168061091857607f821691505b60208210810361092b5761092a6108d4565b5b50919050565b5f819050815f5260205f209050919050565b5f6020601f8301049050919050565b5f82821b905092915050565b5f6008830261098d7fffffffffffffffffffffffffffffffffffffffffffffffffffffffffffffffff82610952565b6109978683610952565b95508019841693508086168417925050509392505050565b5f819050919050565b5f819050919050565b5f6109db6109d66109d1846109af565b6109b8565b6109af565b9050919050565b5f819050919050565b6109f4836109c1565b610a08610a00826109e2565b84845461095e565b825550505050565b5f5f905090565b610a1f610a10565b610a2a8184846109eb565b505050565b5b81811015610a4d57610a425f82610a17565b600181019050610a30565b5050565b601f821115610a9257610a6381610931565b610a6c84610943565b81016020851015610a7b578190505b610a8f610a8785610943565b830182610a2f565b50505b505050565b5f82821c905092915050565b5f610ab25f1984600802610a97565b1980831691505092915050565b5f610aca8383610aa3565b9150826002028217905092915050565b610ae38261089d565b67ffffffffffffffff811115610afc57610afb6108a7565b5b610b068254610901565b610b11828285610a51565b5f60209050601f831160018114610b42575f8415610b30578287015190505b610b3a8582610abf565b865550610ba1565b601f198416610b5086610931565b5f5b82811015610b7757848901518255600182019150602085019450602081019050610b52565b86831015610b945784890151610b90601f891682610aa3565b8355505b6001600288020188555050505b505050505050565b60805161535c610beb5f395f81816108e101528181610ef00152818161166d01528181611761015281816125dc01528181612a500152612b48015261535c5ff3fe6080604052600436106101c1575f3560e01c806382413eac116100f6578063c4f3b39c11610094578063eba1cf0811610063578063eba1cf0814610682578063f0a9e481146106be578063f2fde38b146106e6578063ff7bd03d1461070e576101c1565b8063c4f3b39c146105a6578063ca5eb5e1146105e2578063d2157a2d1461060a578063e60c287c14610646576101c1565b80639792c29c116100d05780639792c29c146104e85780639f76f70f14610518578063bb0b6a5314610540578063c1bd92e31461057c576101c1565b806382413eac146104465780638da5cb5b14610482578063924a57f4146104ac576101c1565b806348c13db311610163578063715018a61161013d578063715018a6146103a25780637c4a6751146103b85780637d25a05e146103f45780638129fc1c14610430576101c1565b806348c13db3146102fe578063548d496f1461033a5780635e280f1114610378576101c1565b80631afafbf41161019f5780631afafbf4146102345780632ca1b7ff146102705780633400288b146102ac5780633859d937146102d4576101c1565b80630c4844aa146101c557806313137d65146101ed57806317442b7014610209575b5f5ffd5b3480156101d0575f5ffd5b506101eb60048036038101906101e6919061308a565b61074a565b005b610207600480360381019061020291906131c5565b6108c8565b005b348015610214575f5ffd5b5061021d6109e8565b60405161022b92919061329e565b60405180910390f35b34801561023f575f5ffd5b5061025a600480360381019061025591906132c5565b6109f6565b60405161026791906132ff565b60405180910390f35b34801561027b575f5ffd5b5061029660048036038101906102919190613318565b610a26565b6040516102a39190613374565b60405180910390f35b3480156102b7575f5ffd5b506102d260048036038101906102cd91906133b7565b610a6a565b005b3480156102df575f5ffd5b506102e8610a80565b6040516102f59190613374565b60405180910390f35b348015610309575f5ffd5b50610324600480360381019061031f91906133f5565b610a88565b6040516103319190613490565b60405180910390f35b348015610345575f5ffd5b50610360600480360381019061035b919061308a565b610e17565b60405161036f939291906134cc565b60405180910390f35b348015610383575f5ffd5b5061038c610eee565b6040516103999190613563565b60405180910390f35b3480156103ad575f5ffd5b506103b6610f12565b005b3480156103c3575f5ffd5b506103de60048036038101906103d9919061357c565b610f25565b6040516103eb91906135c9565b60405180910390f35b3480156103ff575f5ffd5b5061041a600480360381019061041591906133b7565b610f45565b60405161042791906135e2565b60405180910390f35b34801561043b575f5ffd5b50610444610f4f565b005b348015610451575f5ffd5b5061046c600480360381019061046791906135fb565b610f68565b6040516104799190613686565b60405180910390f35b34801561048d575f5ffd5b50610496610fa2565b6040516104a391906132ff565b60405180910390f35b3480156104b7575f5ffd5b506104d260048036038101906104cd91906133f5565b610fc9565b6040516104df9190613686565b60405180910390f35b61050260048036038101906104fd91906133f5565b610fe6565b60405161050f91906136ae565b60405180910390f35b348015610523575f5ffd5b5061053e60048036038101906105399190613746565b61130d565b005b34801561054b575f5ffd5b50610566600480360381019061056191906137b7565b611409565b60405161057391906136ae565b60405180910390f35b348015610587575f5ffd5b5061059061141e565b60405161059d91906137e2565b60405180910390f35b3480156105b1575f5ffd5b506105cc60048036038101906105c791906133f5565b611423565b6040516105d9919061384d565b60405180910390f35b3480156105ed575f5ffd5b50610608600480360381019061060391906133f5565b611757565b005b348015610615575f5ffd5b50610630600480360381019061062b91906133f5565b6117e8565b60405161063d9190613686565b60405180910390f35b348015610651575f5ffd5b5061066c6004803603810190610667919061386d565b61183a565b604051610679919061384d565b60405180910390f35b34801561068d575f5ffd5b506106a860048036038101906106a39190613940565b6118a1565b6040516106b5919061384d565b60405180910390f35b3480156106c9575f5ffd5b506106e460048036038101906106df91906139e8565b611a14565b005b3480156106f1575f5ffd5b5061070c600480360381019061070791906133f5565b611a40565b005b348015610719575f5ffd5b50610734600480360381019061072f9190613a26565b611ac4565b6040516107419190613686565b60405180910390f35b610752611b01565b6006805490508110610799576040517f08c379a000000000000000000000000000000000000000000000000000000000815260040161079090613a9b565b60405180910390fd5b600660016006805490506107ad9190613ae6565b815481106107be576107bd613b19565b5b905f5260205f209060020201600682815481106107de576107dd613b19565b5b905f5260205f2090600202015f82015f9054906101000a900463ffffffff16815f015f6101000a81548163ffffffff021916908363ffffffff1602179055505f820160049054906101000a900461ffff16815f0160046101000a81548161ffff021916908361ffff160217905550600182018160010190816108609190613d7c565b50905050600680548061087657610875613e61565b5b600190038181905f5260205f2090600202015f5f82015f6101000a81549063ffffffff02191690555f820160046101000a81549061ffff0219169055600182015f6108c19190612e6e565b5050905550565b3373ffffffffffffffffffffffffffffffffffffffff167f000000000000000000000000000000000000000000000000000000000000000073ffffffffffffffffffffffffffffffffffffffff161461095857336040517f91ac5e4f00000000000000000000000000000000000000000000000000000000815260040161094f91906132ff565b60405180910390fd5b8660200135610977885f01602081019061097291906137b7565b611b88565b146109d057865f01602081019061098e91906137b7565b87602001356040517fc26bebcc0000000000000000000000000000000000000000000000000000000081526004016109c7929190613e8e565b60405180910390fd5b6109df87878787878787611bf9565b50505050505050565b5f5f60016002915091509091565b6002602052805f5260405f205f915054906101000a900473ffffffffffffffffffffffffffffffffffffffff1681565b6004602052815f5260405f208181548110610a3f575f80fd5b905f5260205f209060089182820401919006600402915091509054906101000a900463ffffffff1681565b610a72611b01565b610a7c8282611e60565b5050565b63ffffffff81565b60605f5f5f5f610a9786611ebf565b93509350935093505f6040518060400160405280600181526020017f7b00000000000000000000000000000000000000000000000000000000000000815250905080604051602001610ae99190613f43565b60405160208183030381529060405290505f5f90505b8551811015610b995781610b32878381518110610b1f57610b1e613b19565b5b602002602001015163ffffffff1661235c565b604051602001610b43929190613f94565b60405160208183030381529060405291508551600182610b639190613fb7565b1015610b8c5781604051602001610b7a9190614034565b60405160208183030381529060405291505b8080600101915050610aff565b5080604051602001610bab919061409f565b604051602081830303815290604052905080604051602001610bcd919061410a565b60405160208183030381529060405290505f5f90505b8451811015610c6f5781858281518110610c0057610bff613b19565b5b6020026020010151604051602001610c19929190614175565b60405160208183030381529060405291508451600182610c399190613fb7565b1015610c625781604051602001610c509190614034565b60405160208183030381529060405291505b8080600101915050610be3565b5080604051602001610c81919061409f565b604051602081830303815290604052905080604051602001610ca391906141f8565b60405160208183030381529060405290505f5f90505b8351811015610d4d5781610ce6858381518110610cd957610cd8613b19565b5b602002602001015161235c565b604051602001610cf7929190613f94565b60405160208183030381529060405291508351600182610d179190613fb7565b1015610d405781604051602001610d2e9190614034565b60405160208183030381529060405291505b8080600101915050610cb9565b5080604051602001610d5f919061409f565b60405160208183030381529060405290508082610db1576040518060400160405280600581526020017f66616c7365000000000000000000000000000000000000000000000000000000815250610de8565b6040518060400160405280600481526020017f74727565000000000000000000000000000000000000000000000000000000008152505b604051602001610df99291906142ad565b60405160208183030381529060405290508095505050505050919050565b60068181548110610e26575f80fd5b905f5260205f2090600202015f91509050805f015f9054906101000a900463ffffffff1690805f0160049054906101000a900461ffff1690806001018054610e6d90613b73565b80601f0160208091040260200160405190810160405280929190818152602001828054610e9990613b73565b8015610ee45780601f10610ebb57610100808354040283529160200191610ee4565b820191905f5260205f20905b815481529060010190602001808311610ec757829003601f168201915b5050505050905083565b7f000000000000000000000000000000000000000000000000000000000000000081565b610f1a611b01565b610f235f612426565b565b6003602052815f5260405f20602052805f5260405f205f91509150505481565b5f5f905092915050565b610f57611b01565b610f6663ffffffff6001611a14565b565b5f3073ffffffffffffffffffffffffffffffffffffffff168273ffffffffffffffffffffffffffffffffffffffff16149050949350505050565b5f5f5f9054906101000a900473ffffffffffffffffffffffffffffffffffffffff16905090565b6005602052805f5260405f205f915054906101000a900460ff1681565b5f5f610ff183611423565b90505f610ffc6124e7565b905061101a6207a1206104005f8461250f909392919063ffffffff16565b90505f8190505f61104663ffffffff858460405180604001604052803481526020015f815250336125a9565b9050805f015194508560025f8781526020019081526020015f205f6101000a81548173ffffffffffffffffffffffffffffffffffffffff021916908373ffffffffffffffffffffffffffffffffffffffff16021790555060055f8773ffffffffffffffffffffffffffffffffffffffff1673ffffffffffffffffffffffffffffffffffffffff1681526020019081526020015f205f9054906101000a900460ff16156112cb5760055f8773ffffffffffffffffffffffffffffffffffffffff1673ffffffffffffffffffffffffffffffffffffffff1681526020019081526020015f205f6101000a81549060ff02191690555f60045f8873ffffffffffffffffffffffffffffffffffffffff1673ffffffffffffffffffffffffffffffffffffffff1681526020019081526020015f208054806020026020016040519081016040528092919081815260200182805480156111e957602002820191905f5260205f20905f905b82829054906101000a900463ffffffff1663ffffffff16815260200190600401906020826003010492830192600103820291508084116111ac5790505b505050505090505f5f90505b81518110156112805760035f8973ffffffffffffffffffffffffffffffffffffffff1673ffffffffffffffffffffffffffffffffffffffff1681526020019081526020015f205f83838151811061124f5761124e613b19565b5b602002602001015163ffffffff1663ffffffff1681526020019081526020015f205f905580806001019150506111f5565b5060045f8873ffffffffffffffffffffffffffffffffffffffff1673ffffffffffffffffffffffffffffffffffffffff1681526020019081526020015f205f6112c99190612eab565b505b7f16d766ac1449391de10e422ffc65515173cf19f678d50a4edde0b8500eb477c385876040516112fc9291906142e6565b60405180910390a150505050919050565b611315611b01565b600660405180606001604052808663ffffffff1681526020018561ffff16815260200184848080601f0160208091040260200160405190810160405280939291908181526020018383808284375f81840152601f19601f82011690508083019250505050505050815250908060018154018082558091505060019003905f5260205f2090600202015f909190919091505f820151815f015f6101000a81548163ffffffff021916908363ffffffff1602179055506020820151815f0160046101000a81548161ffff021916908361ffff1602179055506040820151816001019081611400919061430d565b50505050505050565b6001602052805f5260405f205f915090505481565b600181565b60605f60068054905090505f8167ffffffffffffffff81111561144957611448613bb8565b5b60405190808252806020026020018201604052801561148257816020015b61146f612ed0565b8152602001906001900390816114675790505b5090505f5f90505b82811015611654575f600682815481106114a7576114a6613b19565b5b905f5260205f2090600202016040518060600160405290815f82015f9054906101000a900463ffffffff1663ffffffff1663ffffffff1681526020015f820160049054906101000a900461ffff1661ffff1661ffff16815260200160018201805461151190613b73565b80601f016020809104026020016040519081016040528092919081815260200182805461153d90613b73565b80156115885780601f1061155f57610100808354040283529160200191611588565b820191905f5260205f20905b81548152906001019060200180831161156b57829003601f168201915b50505050508152505090506040518060e001604052806001846115ab9190613fb7565b61ffff168152602001825f015163ffffffff1681526020015f151581526020014267ffffffffffffffff168152602001826020015161ffff1681526020015f73ffffffffffffffffffffffffffffffffffffffff168152602001876040516020016116169190614421565b60405160208183030381529060405281525083838151811061163b5761163a613b19565b5b602002602001018190525050808060010191505061148a565b505f6040518060c00160405280600260ff1681526020017f000000000000000000000000000000000000000000000000000000000000000073ffffffffffffffffffffffffffffffffffffffff1663416ecebf6040518163ffffffff1660e01b8152600401602060405180830381865afa1580156116d4573d5f5f3e3d5ffd5b505050506040513d601f19601f820116820180604052508101906116f8919061444f565b63ffffffff1681526020015f151581526020014267ffffffffffffffff168152602001600f61ffff1681526020013073ffffffffffffffffffffffffffffffffffffffff16815250905061174d5f83836126bf565b9350505050919050565b61175f611b01565b7f000000000000000000000000000000000000000000000000000000000000000073ffffffffffffffffffffffffffffffffffffffff1663ca5eb5e1826040518263ffffffff1660e01b81526004016117b891906132ff565b5f604051808303815f87803b1580156117cf575f5ffd5b505af11580156117e1573d5f5f3e3d5ffd5b5050505050565b5f60055f8373ffffffffffffffffffffffffffffffffffffffff1673ffffffffffffffffffffffffffffffffffffffff1681526020019081526020015f205f9054906101000a900460ff169050919050565b60605f858581019061184c9190614674565b90505f5f90506020858590501061186f57848481019061186c919061308a565b90505b8160200151816040516020016118869291906146bb565b60405160208183030381529060405292505050949350505050565b60605f8383905090505f8167ffffffffffffffff8111156118c5576118c4613bb8565b5b6040519080825280602002602001820160405280156118f35781602001602082028036833780820191505090505b5090505f8267ffffffffffffffff81111561191157611910613bb8565b5b60405190808252806020026020018201604052801561193f5781602001602082028036833780820191505090505b5090505f5f90505b838110156119e4575f5f88888481811061196457611963613b19565b5b905060200281019061197691906146ee565b8101906119839190614750565b915091508185848151811061199b5761199a613b19565b5b602002602001019063ffffffff16908163ffffffff1681525050808484815181106119c9576119c8613b19565b5b60200260200101818152505050508080600101915050611947565b5081816040516020016119f89291906148fc565b6040516020818303038152906040529350505050949350505050565b611a1c611b01565b611a3c8282611a2d575f5f1b611a37565b611a36306126f7565b5b611e60565b5050565b611a48611b01565b5f73ffffffffffffffffffffffffffffffffffffffff168173ffffffffffffffffffffffffffffffffffffffff1603611ab8575f6040517f1e4fbdf7000000000000000000000000000000000000000000000000000000008152600401611aaf91906132ff565b60405180910390fd5b611ac181612426565b50565b5f816020013560015f845f016020810190611adf91906137b7565b63ffffffff1663ffffffff1681526020019081526020015f2054149050919050565b611b09612718565b73ffffffffffffffffffffffffffffffffffffffff16611b27610fa2565b73ffffffffffffffffffffffffffffffffffffffff1614611b8657611b4a612718565b6040517f118cdaa7000000000000000000000000000000000000000000000000000000008152600401611b7d91906132ff565b60405180910390fd5b565b5f5f60015f8463ffffffff1663ffffffff1681526020019081526020015f205490505f5f1b8103611bf057826040517ff6ff4fb7000000000000000000000000000000000000000000000000000000008152600401611be79190613374565b60405180910390fd5b80915050919050565b5f60025f8881526020019081526020015f205f9054906101000a900473ffffffffffffffffffffffffffffffffffffffff1690505f73ffffffffffffffffffffffffffffffffffffffff168173ffffffffffffffffffffffffffffffffffffffff1603611c9b576040517f08c379a0000000000000000000000000000000000000000000000000000000008152600401611c929061497b565b60405180910390fd5b5f5f8787810190611cac9190614b19565b915091505f5f90505b8251811015611d5c57818181518110611cd157611cd0613b19565b5b602002602001015160035f8673ffffffffffffffffffffffffffffffffffffffff1673ffffffffffffffffffffffffffffffffffffffff1681526020019081526020015f205f858481518110611d2a57611d29613b19565b5b602002602001015163ffffffff1663ffffffff1681526020019081526020015f20819055508080600101915050611cb5565b508160045f8573ffffffffffffffffffffffffffffffffffffffff1673ffffffffffffffffffffffffffffffffffffffff1681526020019081526020015f209080519060200190611dae929190612f37565b50600160055f8573ffffffffffffffffffffffffffffffffffffffff1673ffffffffffffffffffffffffffffffffffffffff1681526020019081526020015f205f6101000a81548160ff0219169083151502179055508273ffffffffffffffffffffffffffffffffffffffff167f55c1ceb7495ec6ca03578a8d4136e81048ddcb00f5d4ecfc585d99c11df5469e8383604051611e4c9291906148fc565b60405180910390a250505050505050505050565b8060015f8463ffffffff1663ffffffff1681526020019081526020015f20819055507f238399d427b947898edb290f5ff0f9109849b1c3ba196a42e35f00c50a54b98b8282604051611eb3929190613e8e565b60405180910390a15050565b60608060605f60055f8673ffffffffffffffffffffffffffffffffffffffff1673ffffffffffffffffffffffffffffffffffffffff1681526020019081526020015f205f9054906101000a900460ff16905080612004575f67ffffffffffffffff811115611f3057611f2f613bb8565b5b604051908082528060200260200182016040528015611f5e5781602001602082028036833780820191505090505b505f67ffffffffffffffff811115611f7957611f78613bb8565b5b604051908082528060200260200182016040528015611fac57816020015b6060815260200190600190039081611f975790505b505f67ffffffffffffffff811115611fc757611fc6613bb8565b5b604051908082528060200260200182016040528015611ff55781602001602082028036833780820191505090505b505f9350935093509350612355565b60045f8673ffffffffffffffffffffffffffffffffffffffff1673ffffffffffffffffffffffffffffffffffffffff1681526020019081526020015f208054806020026020016040519081016040528092919081815260200182805480156120b457602002820191905f5260205f20905f905b82829054906101000a900463ffffffff1663ffffffff16815260200190600401906020826003010492830192600103820291508084116120775790505b505050505093505f845190508067ffffffffffffffff8111156120da576120d9613bb8565b5b6040519080825280602002602001820160405280156121085781602001602082028036833780820191505090505b5092508067ffffffffffffffff81111561212557612124613bb8565b5b60405190808252806020026020018201604052801561215857816020015b60608152602001906001900390816121435790505b5093505f5f90505b818110156123525760035f8873ffffffffffffffffffffffffffffffffffffffff1673ffffffffffffffffffffffffffffffffffffffff1681526020019081526020015f205f8783815181106121b9576121b8613b19565b5b602002602001015163ffffffff1663ffffffff1681526020019081526020015f20548482815181106121ee576121ed613b19565b5b6020026020010181815250505f5f90505b6006805490508110156123445786828151811061221f5761221e613b19565b5b602002602001015163ffffffff166006828154811061224157612240613b19565b5b905f5260205f2090600202015f015f9054906101000a900463ffffffff1663ffffffff1603612337576006818154811061227e5761227d613b19565b5b905f5260205f209060020201600101805461229890613b73565b80601f01602080910402602001604051908101604052809291908181526020018280546122c490613b73565b801561230f5780601f106122e65761010080835404028352916020019161230f565b820191905f5260205f20905b8154815290600101906020018083116122f257829003601f168201915b505050505086838151811061232757612326613b19565b5b6020026020010181905250612344565b80806001019150506121ff565b508080600101915050612160565b50505b9193509193565b60605f600161236a8461271f565b0190505f8167ffffffffffffffff81111561238857612387613bb8565b5b6040519080825280601f01601f1916602001820160405280156123ba5781602001600182028036833780820191505090505b5090505f82602001820190505b60011561241b578080600190039150507f3031323334353637383961626364656600000000000000000000000000000000600a86061a8153600a85816124105761240f614b8f565b5b0494505f85036123c7575b819350505050919050565b5f5f5f9054906101000a900473ffffffffffffffffffffffffffffffffffffffff169050815f5f6101000a81548173ffffffffffffffffffffffffffffffffffffffff021916908373ffffffffffffffffffffffffffffffffffffffff1602179055508173ffffffffffffffffffffffffffffffffffffffff168173ffffffffffffffffffffffffffffffffffffffff167f8be0079c531659141344cd1fd0a4f28419497f9722a3daafe3b4186f6b6457e060405160405180910390a35050565b606060036040516020016124fb9190614bf0565b604051602081830303815290604052905090565b606084600361ffff1661252b5f8361287090919063ffffffff16565b61ffff1614612583576125475f8261287090919063ffffffff16565b6040517f3a51740d00000000000000000000000000000000000000000000000000000000815260040161257a91906137e2565b60405180910390fd5b5f61258f8686866128d5565b905061259d87600583612945565b92505050949350505050565b6125b1612fe4565b5f6125be845f0151612a00565b90505f846020015111156125da576125d98460200151612a4d565b5b7f000000000000000000000000000000000000000000000000000000000000000073ffffffffffffffffffffffffffffffffffffffff16632637a450826040518060a001604052808b63ffffffff1681526020016126378c611b88565b81526020018a81526020018981526020015f8960200151111515815250866040518463ffffffff1660e01b8152600401612672929190614cea565b60806040518083038185885af115801561268e573d5f5f3e3d5ffd5b50505050506040513d601f19601f820116820180604052508101906126b39190614e02565b91505095945050505050565b60605f6126cc8585612b93565b90505f836020015163ffffffff16146126ec576126e98184612c12565b90505b809150509392505050565b5f8173ffffffffffffffffffffffffffffffffffffffff165f1b9050919050565b5f33905090565b5f5f5f90507a184f03e93ff9f4daa797ed6e38ed64bf6a1f010000000000000000831061277b577a184f03e93ff9f4daa797ed6e38ed64bf6a1f010000000000000000838161277157612770614b8f565b5b0492506040810190505b6d04ee2d6d415b85acef810000000083106127b8576d04ee2d6d415b85acef810000000083816127ae576127ad614b8f565b5b0492506020810190505b662386f26fc1000083106127e757662386f26fc1000083816127dd576127dc614b8f565b5b0492506010810190505b6305f5e1008310612810576305f5e100838161280657612805614b8f565b5b0492506008810190505b612710831061283557612710838161282b5761282a614b8f565b5b0492506004810190505b60648310612858576064838161284e5761284d614b8f565b5b0492506002810190505b600a8310612867576001810190505b80915050919050565b5f60028261287e9190613fb7565b835110156128c1576040517f08c379a00000000000000000000000000000000000000000000000000000000081526004016128b890614e77565b60405180910390fd5b5f8260028501015190508091505092915050565b60605f826fffffffffffffffffffffffffffffffff16146129195783838360405160200161290593929190614f18565b60405160208183030381529060405261293c565b838360405160200161292c929190614f54565b6040516020818303038152906040525b90509392505050565b606083600361ffff166129615f8361287090919063ffffffff16565b61ffff16146129b95761297d5f8261287090919063ffffffff16565b6040517f3a51740d0000000000000000000000000000000000000000000000000000000081526004016129b091906137e2565b60405180910390fd5b846001806129c78651612c64565b6129d19190614f7f565b86866040516020016129e7959493929190614ff4565b6040516020818303038152906040529150509392505050565b5f813414612a4557346040517f9f704120000000000000000000000000000000000000000000000000000000008152600401612a3c91906135c9565b60405180910390fd5b819050919050565b5f7f000000000000000000000000000000000000000000000000000000000000000073ffffffffffffffffffffffffffffffffffffffff1663e4fe1d946040518163ffffffff1660e01b8152600401602060405180830381865afa158015612ab7573d5f5f3e3d5ffd5b505050506040513d601f19601f82011682018060405250810190612adb919061505e565b90505f73ffffffffffffffffffffffffffffffffffffffff168173ffffffffffffffffffffffffffffffffffffffff1603612b42576040517f5373352a00000000000000000000000000000000000000000000000000000000815260040160405180910390fd5b612b8f337f0000000000000000000000000000000000000000000000000000000000000000848473ffffffffffffffffffffffffffffffffffffffff16612cb9909392919063ffffffff16565b5050565b60605f600184612ba38551612c64565b604051602001612bb593929190615089565b60405160208183030381529060405290505f5f90505b8351811015612c0757612bf882858381518110612beb57612bea613b19565b5b6020026020010151612d3b565b91508080600101915050612bcb565b508091505092915050565b606082600180845f015185602001518660400151876060015188608001518960a00151604051602001612c4d99989796959493929190615121565b604051602081830303815290604052905092915050565b5f61ffff8016821115612cb1576010826040517f6dfcc650000000000000000000000000000000000000000000000000000000008152600401612ca89291906151f8565b60405180910390fd5b819050919050565b612d35848573ffffffffffffffffffffffffffffffffffffffff166323b872dd868686604051602401612cee9392919061521f565b604051602081830303815290604052915060e01b6020820180517bffffffffffffffffffffffffffffffffffffffffffffffffffffffff8381831617835250505050612dd3565b50505050565b60605f836001845f01516001612d6160238860c0015151612d5c9190613fb7565b612c64565b8760200151604051602001612d7b96959493929190615254565b6040516020818303038152906040529050808360400151846060015185608001518660a001518760c00151604051602001612dbb969594939291906152bf565b60405160208183030381529060405291505092915050565b5f5f60205f8451602086015f885af180612df2576040513d5f823e3d81fd5b3d92505f519150505f8214612e0b576001811415612e26565b5f8473ffffffffffffffffffffffffffffffffffffffff163b145b15612e6857836040517f5274afe7000000000000000000000000000000000000000000000000000000008152600401612e5f91906132ff565b60405180910390fd5b50505050565b508054612e7a90613b73565b5f825580601f10612e8b5750612ea8565b601f0160209004905f5260205f2090810190612ea79190613013565b5b50565b5080545f825560070160089004905f5260205f2090810190612ecd9190613013565b50565b6040518060e001604052805f61ffff1681526020015f63ffffffff1681526020015f151581526020015f67ffffffffffffffff1681526020015f61ffff1681526020015f73ffffffffffffffffffffffffffffffffffffffff168152602001606081525090565b828054828255905f5260205f2090600701600890048101928215612fd3579160200282015f5b83821115612fa157835183826101000a81548163ffffffff021916908363ffffffff1602179055509260200192600401602081600301049283019260010302612f5d565b8015612fd15782816101000a81549063ffffffff0219169055600401602081600301049283019260010302612fa1565b505b509050612fe09190613013565b5090565b60405180606001604052805f81526020015f67ffffffffffffffff16815260200161300d61302e565b81525090565b5b8082111561302a575f815f905550600101613014565b5090565b60405180604001604052805f81526020015f81525090565b5f604051905090565b5f5ffd5b5f5ffd5b5f819050919050565b61306981613057565b8114613073575f5ffd5b50565b5f8135905061308481613060565b92915050565b5f6020828403121561309f5761309e61304f565b5b5f6130ac84828501613076565b91505092915050565b5f5ffd5b5f606082840312156130ce576130cd6130b5565b5b81905092915050565b5f819050919050565b6130e9816130d7565b81146130f3575f5ffd5b50565b5f81359050613104816130e0565b92915050565b5f5ffd5b5f5ffd5b5f5ffd5b5f5f83601f84011261312b5761312a61310a565b5b8235905067ffffffffffffffff8111156131485761314761310e565b5b60208301915083600182028301111561316457613163613112565b5b9250929050565b5f73ffffffffffffffffffffffffffffffffffffffff82169050919050565b5f6131948261316b565b9050919050565b6131a48161318a565b81146131ae575f5ffd5b50565b5f813590506131bf8161319b565b92915050565b5f5f5f5f5f5f5f60e0888a0312156131e0576131df61304f565b5b5f6131ed8a828b016130b9565b97505060606131fe8a828b016130f6565b965050608088013567ffffffffffffffff81111561321f5761321e613053565b5b61322b8a828b01613116565b955095505060a061323e8a828b016131b1565b93505060c088013567ffffffffffffffff81111561325f5761325e613053565b5b61326b8a828b01613116565b925092505092959891949750929550565b5f67ffffffffffffffff82169050919050565b6132988161327c565b82525050565b5f6040820190506132b15f83018561328f565b6132be602083018461328f565b9392505050565b5f602082840312156132da576132d961304f565b5b5f6132e7848285016130f6565b91505092915050565b6132f98161318a565b82525050565b5f6020820190506133125f8301846132f0565b92915050565b5f5f6040838503121561332e5761332d61304f565b5b5f61333b858286016131b1565b925050602061334c85828601613076565b9150509250929050565b5f63ffffffff82169050919050565b61336e81613356565b82525050565b5f6020820190506133875f830184613365565b92915050565b61339681613356565b81146133a0575f5ffd5b50565b5f813590506133b18161338d565b92915050565b5f5f604083850312156133cd576133cc61304f565b5b5f6133da858286016133a3565b92505060206133eb858286016130f6565b9150509250929050565b5f6020828403121561340a5761340961304f565b5b5f613417848285016131b1565b91505092915050565b5f81519050919050565b5f82825260208201905092915050565b8281835e5f83830152505050565b5f601f19601f8301169050919050565b5f61346282613420565b61346c818561342a565b935061347c81856020860161343a565b61348581613448565b840191505092915050565b5f6020820190508181035f8301526134a88184613458565b905092915050565b5f61ffff82169050919050565b6134c6816134b0565b82525050565b5f6060820190506134df5f830186613365565b6134ec60208301856134bd565b81810360408301526134fe8184613458565b9050949350505050565b5f819050919050565b5f61352b6135266135218461316b565b613508565b61316b565b9050919050565b5f61353c82613511565b9050919050565b5f61354d82613532565b9050919050565b61355d81613543565b82525050565b5f6020820190506135765f830184613554565b92915050565b5f5f604083850312156135925761359161304f565b5b5f61359f858286016131b1565b92505060206135b0858286016133a3565b9150509250929050565b6135c381613057565b82525050565b5f6020820190506135dc5f8301846135ba565b92915050565b5f6020820190506135f55f83018461328f565b92915050565b5f5f5f5f60a085870312156136135761361261304f565b5b5f613620878288016130b9565b945050606085013567ffffffffffffffff81111561364157613640613053565b5b61364d87828801613116565b93509350506080613660878288016131b1565b91505092959194509250565b5f8115159050919050565b6136808161366c565b82525050565b5f6020820190506136995f830184613677565b92915050565b6136a8816130d7565b82525050565b5f6020820190506136c15f83018461369f565b92915050565b6136d0816134b0565b81146136da575f5ffd5b50565b5f813590506136eb816136c7565b92915050565b5f5f83601f8401126137065761370561310a565b5b8235905067ffffffffffffffff8111156137235761372261310e565b5b60208301915083600182028301111561373f5761373e613112565b5b9250929050565b5f5f5f5f6060858703121561375e5761375d61304f565b5b5f61376b878288016133a3565b945050602061377c878288016136dd565b935050604085013567ffffffffffffffff81111561379d5761379c613053565b5b6137a9878288016136f1565b925092505092959194509250565b5f602082840312156137cc576137cb61304f565b5b5f6137d9848285016133a3565b91505092915050565b5f6020820190506137f55f8301846134bd565b92915050565b5f81519050919050565b5f82825260208201905092915050565b5f61381f826137fb565b6138298185613805565b935061383981856020860161343a565b61384281613448565b840191505092915050565b5f6020820190508181035f8301526138658184613815565b905092915050565b5f5f5f5f604085870312156138855761388461304f565b5b5f85013567ffffffffffffffff8111156138a2576138a1613053565b5b6138ae87828801613116565b9450945050602085013567ffffffffffffffff8111156138d1576138d0613053565b5b6138dd87828801613116565b925092505092959194509250565b5f5f83601f840112613900576138ff61310a565b5b8235905067ffffffffffffffff81111561391d5761391c61310e565b5b60208301915083602082028301111561393957613938613112565b5b9250929050565b5f5f5f5f604085870312156139585761395761304f565b5b5f85013567ffffffffffffffff81111561397557613974613053565b5b61398187828801613116565b9450945050602085013567ffffffffffffffff8111156139a4576139a3613053565b5b6139b0878288016138eb565b925092505092959194509250565b6139c78161366c565b81146139d1575f5ffd5b50565b5f813590506139e2816139be565b92915050565b5f5f604083850312156139fe576139fd61304f565b5b5f613a0b858286016133a3565b9250506020613a1c858286016139d4565b9150509250929050565b5f60608284031215613a3b57613a3a61304f565b5b5f613a48848285016130b9565b91505092915050565b7f496e76616c696420696e646578000000000000000000000000000000000000005f82015250565b5f613a85600d8361342a565b9150613a9082613a51565b602082019050919050565b5f6020820190508181035f830152613ab281613a79565b9050919050565b7f4e487b71000000000000000000000000000000000000000000000000000000005f52601160045260245ffd5b5f613af082613057565b9150613afb83613057565b9250828203905081811115613b1357613b12613ab9565b5b92915050565b7f4e487b71000000000000000000000000000000000000000000000000000000005f52603260045260245ffd5b7f4e487b71000000000000000000000000000000000000000000000000000000005f52602260045260245ffd5b5f6002820490506001821680613b8a57607f821691505b602082108103613b9d57613b9c613b46565b5b50919050565b5f81549050613bb181613b73565b9050919050565b7f4e487b71000000000000000000000000000000000000000000000000000000005f52604160045260245ffd5b5f819050815f5260205f209050919050565b5f6020601f8301049050919050565b5f82821b905092915050565b5f60088302613c417fffffffffffffffffffffffffffffffffffffffffffffffffffffffffffffffff82613c06565b613c4b8683613c06565b95508019841693508086168417925050509392505050565b5f613c7d613c78613c7384613057565b613508565b613057565b9050919050565b5f819050919050565b613c9683613c63565b613caa613ca282613c84565b848454613c12565b825550505050565b5f5f905090565b613cc1613cb2565b613ccc818484613c8d565b505050565b5b81811015613cef57613ce45f82613cb9565b600181019050613cd2565b5050565b601f821115613d3457613d0581613be5565b613d0e84613bf7565b81016020851015613d1d578190505b613d31613d2985613bf7565b830182613cd1565b50505b505050565b5f82821c905092915050565b5f613d545f1984600802613d39565b1980831691505092915050565b5f613d6c8383613d45565b9150826002028217905092915050565b818103613d8a575050613e5f565b613d9382613ba3565b67ffffffffffffffff811115613dac57613dab613bb8565b5b613db68254613b73565b613dc1828285613cf3565b5f601f831160018114613dee575f8415613ddc578287015490505b613de68582613d61565b865550613e58565b601f198416613dfc87613be5565b9650613e0786613be5565b5f5b82811015613e2e57848901548255600182019150600185019450602081019050613e09565b86831015613e4b5784890154613e47601f891682613d45565b8355505b6001600288020188555050505b5050505050505b565b7f4e487b71000000000000000000000000000000000000000000000000000000005f52603160045260245ffd5b5f604082019050613ea15f830185613365565b613eae602083018461369f565b9392505050565b5f81905092915050565b5f613ec9826137fb565b613ed38185613eb5565b9350613ee381856020860161343a565b80840191505092915050565b5f81905092915050565b7f22636861696e73223a5b000000000000000000000000000000000000000000005f82015250565b5f613f2d600a83613eef565b9150613f3882613ef9565b600a82019050919050565b5f613f4e8284613ebf565b9150613f5982613f21565b915081905092915050565b5f613f6e82613420565b613f788185613eef565b9350613f8881856020860161343a565b80840191505092915050565b5f613f9f8285613ebf565b9150613fab8284613f64565b91508190509392505050565b5f613fc182613057565b9150613fcc83613057565b9250828201905080821115613fe457613fe3613ab9565b5b92915050565b7f2c000000000000000000000000000000000000000000000000000000000000005f82015250565b5f61401e600183613eef565b915061402982613fea565b600182019050919050565b5f61403f8284613ebf565b915061404a82614012565b915081905092915050565b7f5d2c0000000000000000000000000000000000000000000000000000000000005f82015250565b5f614089600283613eef565b915061409482614055565b600282019050919050565b5f6140aa8284613ebf565b91506140b58261407d565b915081905092915050565b7f22636861696e4e616d6573223a5b0000000000000000000000000000000000005f82015250565b5f6140f4600e83613eef565b91506140ff826140c0565b600e82019050919050565b5f6141158284613ebf565b9150614120826140e8565b915081905092915050565b7f22000000000000000000000000000000000000000000000000000000000000005f82015250565b5f61415f600183613eef565b915061416a8261412b565b600182019050919050565b5f6141808285613ebf565b915061418b82614153565b91506141978284613f64565b91506141a282614153565b91508190509392505050565b7f2262616c616e636573223a205b000000000000000000000000000000000000005f82015250565b5f6141e2600d83613eef565b91506141ed826141ae565b600d82019050919050565b5f6142038284613ebf565b915061420e826141d6565b915081905092915050565b7f2270726f636573736564223a20000000000000000000000000000000000000005f82015250565b5f61424d600d83613eef565b915061425882614219565b600d82019050919050565b7f7d000000000000000000000000000000000000000000000000000000000000005f82015250565b5f614297600183613eef565b91506142a282614263565b600182019050919050565b5f6142b88285613ebf565b91506142c382614241565b91506142cf8284613f64565b91506142da8261428b565b91508190509392505050565b5f6040820190506142f95f83018561369f565b61430660208301846132f0565b9392505050565b61431682613420565b67ffffffffffffffff81111561432f5761432e613bb8565b5b6143398254613b73565b614344828285613cf3565b5f60209050601f831160018114614375575f8415614363578287015190505b61436d8582613d61565b8655506143d4565b601f19841661438386613be5565b5f5b828110156143aa57848901518255600182019150602085019450602081019050614385565b868310156143c757848901516143c3601f891682613d45565b8355505b6001600288020188555050505b505050505050565b5f8160601b9050919050565b5f6143f2826143dc565b9050919050565b5f614403826143e8565b9050919050565b61441b6144168261318a565b6143f9565b82525050565b5f61442c828461440a565b60148201915081905092915050565b5f815190506144498161338d565b92915050565b5f602082840312156144645761446361304f565b5b5f6144718482850161443b565b91505092915050565b5f5ffd5b61448782613448565b810181811067ffffffffffffffff821117156144a6576144a5613bb8565b5b80604052505050565b5f6144b8613046565b90506144c4828261447e565b919050565b5f5ffd5b6144d68161327c565b81146144e0575f5ffd5b50565b5f813590506144f1816144cd565b92915050565b5f5ffd5b5f67ffffffffffffffff82111561451557614514613bb8565b5b61451e82613448565b9050602081019050919050565b828183375f83830152505050565b5f61454b614546846144fb565b6144af565b905082815260208101848484011115614567576145666144f7565b5b61457284828561452b565b509392505050565b5f82601f83011261458e5761458d61310a565b5b813561459e848260208601614539565b91505092915050565b5f60e082840312156145bc576145bb61447a565b5b6145c660e06144af565b90505f6145d5848285016136dd565b5f8301525060206145e8848285016133a3565b60208301525060406145fc848285016139d4565b6040830152506060614610848285016144e3565b6060830152506080614624848285016136dd565b60808301525060a0614638848285016131b1565b60a08301525060c082013567ffffffffffffffff81111561465c5761465b6144c9565b5b6146688482850161457a565b60c08301525092915050565b5f602082840312156146895761468861304f565b5b5f82013567ffffffffffffffff8111156146a6576146a5613053565b5b6146b2848285016145a7565b91505092915050565b5f6040820190506146ce5f830185613365565b6146db60208301846135ba565b9392505050565b5f5ffd5b5f5ffd5b5f5ffd5b5f5f8335600160200384360303811261470a576147096146e2565b5b80840192508235915067ffffffffffffffff82111561472c5761472b6146e6565b5b602083019250600182023603831315614748576147476146ea565b5b509250929050565b5f5f604083850312156147665761476561304f565b5b5f614773858286016133a3565b925050602061478485828601613076565b9150509250929050565b5f81519050919050565b5f82825260208201905092915050565b5f819050602082019050919050565b6147c081613356565b82525050565b5f6147d183836147b7565b60208301905092915050565b5f602082019050919050565b5f6147f38261478e565b6147fd8185614798565b9350614808836147a8565b805f5b8381101561483857815161481f88826147c6565b975061482a836147dd565b92505060018101905061480b565b5085935050505092915050565b5f81519050919050565b5f82825260208201905092915050565b5f819050602082019050919050565b61487781613057565b82525050565b5f614888838361486e565b60208301905092915050565b5f602082019050919050565b5f6148aa82614845565b6148b4818561484f565b93506148bf8361485f565b805f5b838110156148ef5781516148d6888261487d565b97506148e183614894565b9250506001810190506148c2565b5085935050505092915050565b5f6040820190508181035f83015261491481856147e9565b9050818103602083015261492881846148a0565b90509392505050565b7f556e6b6e6f776e207265717565737400000000000000000000000000000000005f82015250565b5f614965600f8361342a565b915061497082614931565b602082019050919050565b5f6020820190508181035f83015261499281614959565b9050919050565b5f67ffffffffffffffff8211156149b3576149b2613bb8565b5b602082029050602081019050919050565b5f6149d66149d184614999565b6144af565b905080838252602082019050602084028301858111156149f9576149f8613112565b5b835b81811015614a225780614a0e88826133a3565b8452602084019350506020810190506149fb565b5050509392505050565b5f82601f830112614a4057614a3f61310a565b5b8135614a508482602086016149c4565b91505092915050565b5f67ffffffffffffffff821115614a7357614a72613bb8565b5b602082029050602081019050919050565b5f614a96614a9184614a59565b6144af565b90508083825260208201905060208402830185811115614ab957614ab8613112565b5b835b81811015614ae25780614ace8882613076565b845260208401935050602081019050614abb565b5050509392505050565b5f82601f830112614b0057614aff61310a565b5b8135614b10848260208601614a84565b91505092915050565b5f5f60408385031215614b2f57614b2e61304f565b5b5f83013567ffffffffffffffff811115614b4c57614b4b613053565b5b614b5885828601614a2c565b925050602083013567ffffffffffffffff811115614b7957614b78613053565b5b614b8585828601614aec565b9150509250929050565b7f4e487b71000000000000000000000000000000000000000000000000000000005f52601260045260245ffd5b5f8160f01b9050919050565b5f614bd282614bbc565b9050919050565b614bea614be5826134b0565b614bc8565b82525050565b5f614bfb8284614bd9565b60028201915081905092915050565b614c13816130d7565b82525050565b5f82825260208201905092915050565b5f614c33826137fb565b614c3d8185614c19565b9350614c4d81856020860161343a565b614c5681613448565b840191505092915050565b614c6a8161366c565b82525050565b5f60a083015f830151614c855f8601826147b7565b506020830151614c986020860182614c0a565b5060408301518482036040860152614cb08282614c29565b91505060608301518482036060860152614cca8282614c29565b9150506080830151614cdf6080860182614c61565b508091505092915050565b5f6040820190508181035f830152614d028185614c70565b9050614d1160208301846132f0565b9392505050565b5f81519050614d26816130e0565b92915050565b5f81519050614d3a816144cd565b92915050565b5f81519050614d4e81613060565b92915050565b5f60408284031215614d6957614d6861447a565b5b614d7360406144af565b90505f614d8284828501614d40565b5f830152506020614d9584828501614d40565b60208301525092915050565b5f60808284031215614db657614db561447a565b5b614dc060606144af565b90505f614dcf84828501614d18565b5f830152506020614de284828501614d2c565b6020830152506040614df684828501614d54565b60408301525092915050565b5f60808284031215614e1757614e1661304f565b5b5f614e2484828501614da1565b91505092915050565b7f746f55696e7431365f6f75744f66426f756e64730000000000000000000000005f82015250565b5f614e6160148361342a565b9150614e6c82614e2d565b602082019050919050565b5f6020820190508181035f830152614e8e81614e55565b9050919050565b5f6fffffffffffffffffffffffffffffffff82169050919050565b5f8160801b9050919050565b5f614ec682614eb0565b9050919050565b614ede614ed982614e95565b614ebc565b82525050565b5f8160e01b9050919050565b5f614efa82614ee4565b9050919050565b614f12614f0d82613356565b614ef0565b82525050565b5f614f238286614ecd565b601082019150614f338285614f01565b600482019150614f438284614ecd565b601082019150819050949350505050565b5f614f5f8285614ecd565b601082019150614f6f8284614f01565b6004820191508190509392505050565b5f614f89826134b0565b9150614f94836134b0565b9250828201905061ffff811115614fae57614fad613ab9565b5b92915050565b5f60ff82169050919050565b5f8160f81b9050919050565b5f614fd682614fc0565b9050919050565b614fee614fe982614fb4565b614fcc565b82525050565b5f614fff8288613ebf565b915061500b8287614fdd565b60018201915061501b8286614bd9565b60028201915061502b8285614fdd565b60018201915061503b8284613ebf565b91508190509695505050505050565b5f815190506150588161319b565b92915050565b5f602082840312156150735761507261304f565b5b5f6150808482850161504a565b91505092915050565b5f6150948286614bd9565b6002820191506150a48285614bd9565b6002820191506150b48284614bd9565b600282019150819050949350505050565b5f6150cf82614fcc565b9050919050565b6150e76150e28261366c565b6150c5565b82525050565b5f8160c01b9050919050565b5f615103826150ed565b9050919050565b61511b6151168261327c565b6150f9565b82525050565b5f61512c828c613ebf565b9150615138828b614fdd565b600182019150615148828a614bd9565b6002820191506151588289614fdd565b6001820191506151688288614f01565b60048201915061517882876150d6565b600182019150615188828661510a565b6008820191506151988285614bd9565b6002820191506151a8828461440a565b6014820191508190509a9950505050505050505050565b5f819050919050565b5f6151e26151dd6151d8846151bf565b613508565b614fb4565b9050919050565b6151f2816151c8565b82525050565b5f60408201905061520b5f8301856151e9565b61521860208301846135ba565b9392505050565b5f6060820190506152325f8301866132f0565b61523f60208301856132f0565b61524c60408301846135ba565b949350505050565b5f61525f8289613ebf565b915061526b8288614fdd565b60018201915061527b8287614bd9565b60028201915061528b8286614bd9565b60028201915061529b8285614bd9565b6002820191506152ab8284614f01565b600482019150819050979650505050505050565b5f6152ca8289613ebf565b91506152d682886150d6565b6001820191506152e6828761510a565b6008820191506152f68286614bd9565b600282019150615306828561440a565b6014820191506153168284613ebf565b915081905097965050505050505056fea2646970667358221220dd0b5c84f02fe3d2241c81ef2b9ee407ec253700dc4c4ee9b73fef116b3f7d6e64736f6c634300081e0033","linkReferences":{}},"methodIdentifiers":{"READ_CHANNEL()":"3859d937","READ_MSG_TYPE()":"c1bd92e3","addSupportedChain(uint32,uint16,string)":"9f76f70f","addressBalances(address,uint32)":"7c4a6751","addressChains(address,uint256)":"2ca1b7ff","addressProcessed(address)":"924a57f4","allowInitializePath((uint32,bytes32,uint64))":"ff7bd03d","endpoint()":"5e280f11","fetchBalances(address)":"9792c29c","getBalancesJson(address)":"48c13db3","getReadCommand(address)":"c4f3b39c","initialize()":"8129fc1c","isComposeMsgSender((uint32,bytes32,uint64),bytes,address)":"82413eac","isProcessed(address)":"d2157a2d","lzMap(bytes,bytes)":"e60c287c","lzReceive((uint32,bytes32,uint64),bytes32,bytes,address,bytes)":"13137d65","lzReduce(bytes,bytes[])":"eba1cf08","nextNonce(uint32,bytes32)":"7d25a05e","oAppVersion()":"17442b70","owner()":"8da5cb5b","peers(uint32)":"bb0b6a53","removeSupportedChain(uint256)":"0c4844aa","renounceOwnership()":"715018a6","requestToAddress(bytes32)":"1afafbf4","setDelegate(address)":"ca5eb5e1","setPeer(uint32,bytes32)":"3400288b","setReadChannel(uint32,bool)":"f0a9e481","supportedChains(uint256)":"548d496f","transferOwnership(address)":"f2fde38b"},"id":52}